{
    "contractName": "NFT",
    "abi": [
        {
            "inputs": [],
            "name": "helloWorld",
            "outputs": [
                {
                    "internalType": "string",
                    "name": "",
                    "type": "string"
                }
            ],
            "stateMutability": "pure",
            "type": "function"
        }
    ],
    "bytecode": "608060405234801561001057600080fd5b5060e38061001f6000396000f3fe6080604052348015600f57600080fd5b506004361060285760003560e01c8063c605f76c14602d575b600080fd5b604080518082018252600b81526a12195b1b1bc815dbdc9b1960aa1b60208201529051605891906061565b60405180910390f35b600060208083528351808285015260005b81811015608c578581018301518582016040015282016072565b506000604082860101526040601f19601f830116850101925050509291505056fea264697066735822122088a87c682b8964c25b637e7db51daa263d6763cbeb6cb5f8c238a1ac8594301b64736f6c63430008130033",
    "sourcePath": "/Users/sam4130/Documents/Blockchain/pokedex-nft/src/contracts/PokeDexNFT.sol",
    "compiler": {
        "name": "solc",
        "version": "0.8.19+commit.7dd6d404"
    },
    "functionHashes": {
        "helloWorld()": "c605f76c"
    },
    "gasEstimates": {
        "creation": {
            "codeDepositCost": "45400",
            "executionCost": "99",
            "totalCost": "45499"
        },
        "external": {
            "helloWorld()": "infinite"
        }
    }
}